:100000000C94BF050C94E7050C94E7050C94E705E8
:100010000C94E7050C94E7050C94E7050C94E705B0
:100020000C94E7050C94E7050C94E7050C94E705A0
:100030000C94E7050C94E7050C94E7050C94E70590
:100040000C94C61D0C94E7050C94B91C0C94931CDD
:100050000C94E7050C94E7050C94E7050C94E70570
:100060000C94C80E0C94E705100812081408160822
:1000700018081A081C081E08200822082408260848
:1000800033083508370839083B083D083F08410860
:10009000430845084708490800407A10F35A00A071
:1000A000724E18090010A5D4E80000E87648170041
:1000B00000E40B54020000CA9A3B000000E1F50581
:1000C000000080969800000040420F000000A086CB
:1000D00001000000102700000000E80300000000FD
:1000E0006400000000000A000000000001000000A1
:1000F00000002C76D888DC674F0823DFC1DFAE59BB
:10010000E1B1B796E5E3E453C63AE651997696E84D
:10011000E6C28426EB898C9B62ED407C6FFCEFBCD1
:100120009C9F40F2BAA56FA5F490055A2AF75C93FC
:100130006B6CF9676DC11BFCE0E40D47FEF520E632
:10014000B500D0ED902E0300943577050080841E15
:10015000080000204E0A000000C80C333333330F70
:10016000986E12831141EF8D2114893BE65516CF0D
:10017000FEE6DB18D1844B381BF77C1D901DA4BB19
:10018000E424203284725E228100C9F124ECA1E5CE
:100190003D27007F001FE0FF7FFF3FFEFFF8FF03CA
:1001A000F80380FF803FC0FF7FFF3FFEFFF8FF03A3
:1001B000FC0780FF801FC0FF3FFF3FFEFFF8FF03EB
:1001C000FC07C0FF013FE0FF7FFF3FFFFFF8FF0399
:1001D000FE0FC0FF811F00F8013F00007F00FC01FF
:1001E000FE0FE0FF813F00F8013F00807F00FE012D
:1001F000FF0FE0F7831F00F801FF1FC03F00FF0063
:10020000BF1FF0F3831F00F801FF0FE00F807F8016
:100210009F1FF8F3831F00F801FF0FF00FC01FC0EE
:100220009F1FF8FF871F00F800FF0FF803E01FC0B3
:10023000FF3FF8FF873F00F8013F00FC03F00FE0AD
:10024000FF3FFCFF871F00FC003F00FE01F807E0B6
:10025000FF3FFEFF8F1F00FC013F00FF00FC03F08B
:10026000FF7FFEE08FFF1FF881FF1FFF7FFCFFF184
:10027000077F7EC09FFF1FFC00FF1FFF7FFCFFF179
:1002800003FE7FC0DFFF1FFC81FF1FFF7FFCFFFD20
:1002900003FE3F80DFFF1FFC81FF9FFF7FFEFFFD0E
:1002A00001FCFFE0FFD1AFFF32FFD0FFFEFFE0FF18
:1002B000D1AEFFD0FFFEFFE0FFD11000FFFEFFD068
:1002C000FFE0FFC1FFD1AED580A83FD300408D1421
:1002D0002000A1C8DA1281CFD9F1DB402EA4A6AF4D
:1002E000FFD0FFFE7C3C3E5E2B3D3F2F5B5D3B2CF9
:1002F0002A225C0000000000240027002A000000E1
:100300000000250028002B0000000000230026002C
:100310002900040404040404040402020202020288
:1003200003030303030301020408102040800102B9
:100330000408102001020408102000000008000238
:10034000010000030407000000000000000000128C
:100350001A00001803700390207F001A0018000094
:1003600000000B0000FFFFFFFFFFFFFFFFFFFF117B
:10037000103013010601C00001C00001C00001C01F
:100380000001C00001C00001C000FFFF80FFFF802E
:1003900001C00001C00001C00001C00001C0000197
:1003A000C00001C0000708080B03023E3E3E3E3E6F
:1003B000F0F0F00902040B010DFF80FF8005050538
:1003C0000B0502F8F8F8F8F8FF111848130102FFBE
:1003D000FF80FFFF80C00380C00380C00380C00394
:1003E00080C00380C00380C00380C00380C003803E
:1003F000C00380C00380C00380C00380C00380C0EE
:100400000380C00380C00380C00380C00380FFFF5F
:1004100080FFFF80FFFF80061818130702FCFC1CFA
:100420001C1C1C1C1C1C1C1C1C1C1C1C1C1C1C1C0C
:100430001C1C1C1C1C111848130102FFFF80FFFF2D
:10044000800003800003800003800003800003809D
:10045000000380000380000380000380FFFF80FF13
:10046000FF80C00000C00000C00000C00000C0004D
:1004700000C00000C00000C00000FFFF80FFFF8040
:10048000FFFF80111848130102FFFF80FFFF80006B
:1004900003800003800003800003800003800003CA
:1004A000800003800003800003801FFF801FFF8007
:1004B00000038000038000038000038000038000AD
:1004C0000380000380000380FFFF80FFFF80FFFFA9
:1004D00080111848130102C00380C00380C003804C
:1004E000C00380C00380C00380C00380C00380C0FD
:1004F0000380C00380C00380FFFF80FFFF800003F4
:1005000080000380000380000380000380000380DC
:10051000000380000380000380000380000380113B
:100520001848130102FFFF80FFFF80C00000C000D9
:1005300000C00000C00000C00000C00000C00000FB
:10054000C00000C00000FFFF80FFFF8000038000AC
:100550000380000380000380000380000380000309
:1005600080000380FFFF80FFFF80FFFF801118489D
:10057000130102FFFF80FFFF80C00000C00000C029
:100580000000C00000C00000C00000C00000C000AB
:1005900000C00000FFFF80FFFF80C00380C0038019
:1005A000C00380C00380C00380C00380C00380C03C
:1005B0000380FFFF80FFFF80FFFF801018301302D1
:1005C00002FFFFFFFF00070007000700070007000A
:1005D00007000700070007000700070007000700E3
:1005E00007000700070007000700070007000700D3
:1005F00007111848130102FFFF80FFFF80C003802E
:10060000C00380C00380C00380C00380C00380C0DB
:100610000380C00380C00380FFFF80FFFF80C00312
:1006200080C00380C00380C00380C00380C00380FB
:10063000C00380C00380FFFF80FFFF80FFFF8011A9
:100640001848130102FFFF80FFFF80C00380C00332
:1006500080C00380C00380C00380C00380C00380CB
:10066000C00380C00380FFFF80FFFF800003800085
:1006700003800003800003800003800003800003E8
:1006800080000380FFFF80FFFF80FFFF80051010C8
:100690000B0502F8F8F8F8F8000000000000F8F880
:1006A000F8F8F80710100B03023E3E3E3E3E0000F5
:1006B000003E3E3E3E3EF0F0F0FFFFFFFFFFFFFF3B
:1006C000FFFFFFFFFFFFFFFFFFFFFFFFFFFFFFFF3A
:1006D000FFFFFFFFFFFFFFFFFFFFFFFFFFFFFFFF2A
:1006E000FFFFFFFFFFFFFFFFFFFFFFFFFFFFFFFF1A
:1006F000FFFFFFFFFFFFFFFFFFFFFFFFFF01070EF1
:1007000000FE0A0189031E207FFE0CFE0BFE0E0078
:1007100070222A7AC0C0C0C0C0C0C000C0C0195476
:1007200074D8D8D8D8026A7A787878FC7878FC7847
:100730007878016B7B3078B4B4703834B4B47830E6
:10074000026A7A6CDCD8701020386CECD8026A7AB5
:10075000386C6C6C386CDCD8D86C292474C0C0C080
:10076000C0105D7D18306060C0C0C0C0C060603027
:1007700018105D7DC06030301818181818303060BF
:10078000C0056777B4B4783078B4B4036777303095
:1007900030FC303030203474E06060C0066171FCA1
:1007A000222272C0C0006D7D0C0C0C181830303045
:1007B0006060C0C0C0026A7A78CCCCCCCCCCCCCC47
:1007C000CC78026A7A3070F0303030303030FC0251
:1007D0006A7A78CCCC0C18183060C0FC026A7A783F
:1007E000CCCC0C380C0CCCCC78026A7A08181838AF
:1007F00078D8D8FC1818026A7AFCC0C0F8CC0C0C67
:10080000CCCC78026A7A386CCCC0F8CCCCCCCC7822
:10081000026A7AFCCCD818303030303030026A7A34
:1008200078CCCCCC7878CCCCCC78026A7A78CCCC2A
:10083000CCCC7C0CCCD870232777C0C0000000C083
:10084000C02139796060000000E06060C002697911
:100850000C183060C06030180C046474FC0000FC9C
:10086000026979C06030180C183060C0026A7A786A
:10087000CCCC18303030003030026A7A386CDCF47E
:10088000F4F4F4DC603C026A7A78FCCCCCCCCCFC8E
:10089000CCCCCC026A7AF8CCCCC8F8CCCCCCCCF896
:1008A000026A7A78CCCCC0C0C0C0CCCC78026A7A5C
:1008B000F0D8CCCCCCCCCCCCD8F0026A7AFCC0C07E
:1008C000C0F8C0C0C0C0FC026A7AFCC0C0C0F8C09A
:1008D000C0C0C0C0026A7A78CCCCC0C0DCCCCCCC62
:1008E00078026A7ACCCCCCCCFCCCCCCCCCCC026A16
:1008F0007AFC3030303030303030FC026A7A0C0C08
:100900000C0C0C0C0CCCD870026A7ACCD8F0E0E05D
:10091000F0F0D8CCCC026A7AC0C0C0C0C0C0C0C0A1
:10092000C0FC026A7A84CCCCFCFCCCCCCCCCCC0213
:100930006A7ACCCCECECECDCDCDCCCCC026A7A78ED
:10094000CCCCCCCCCCCCCCCC78026A7AF8CCCCCC8D
:10095000CCF8C0C0C0C0006C7C78CCCCCCCCCCEC8B
:10096000DCCC780C04026A7AF8CCCCCCF8D8CCCCAD
:10097000CCCC026A7A78CCCC60303018CCCC7802FF
:100980006A7AFC303030303030303030026A7ACC25
:10099000CCCCCCCCCCCCCCCC78026A7ACCCCCCCC69
:1009A000CCCCCC787830026A7ACCCCCCCCCCFCFCE9
:1009B000FCFC48026A7ACCCC787830307878CCCCA1
:1009C000026A7ACCCCCC78783030303030026A7A17
:1009D000FC0C181830306060C0FC105D7DF8C0C0A1
:1009E000C0C0C0C0C0C0C0C0C0F8006D7DC0C0C025
:1009F000606030303018180C0C0C105D7DF8181841
:100A0000181818181818181818F80B63733078CCC1
:100A1000006272FCFC1A4373C0603002677778CCC6
:100A20001C6CCCCC7C026A7AC0C0C0F8CCCCCCCCDC
:100A3000CCF802677778CCC0C0C0CC78026A7A0C58
:100A40000C0C7CCCCCCCCCCC7C02677778CCCCFCAE
:100A5000C0CC78026A7A183C3030FC30303030300C
:100A600000697974DCD8D87040F8CC78026A7AC012
:100A7000C0C0F8CCCCCCCCCCCC222A7AC0C000C030
:100A8000C0C0C0C0C0C0105C7C181800181818186E
:100A9000181818D870026A7AC0C0C0C8D8F0F0D848
:100AA000CCC4222A7AC0C0C0C0C0C0C0C0C0C0026E
:100AB0006777D8FCFCFCFCFCCC026777F8CCCCCC8C
:100AC000CCCCCC02677778CCCCCCCCCC7800697914
:100AD000F8CCCCCCCCCCF8C0C00069797CCCCCCCE8
:100AE000CCCC7C0C0C026777F8CCCCC0C0C0C00268
:100AF000677778CC603018CC78026A7A303030FC76
:100B000030303030301C026777CCCCCCCCCCCC7CB5
:100B1000026777CCCCCC78783030026777CCCCFCCD
:100B2000FCFCFC48026777CCCC783078CCCC0069F0
:100B300079CCCC6C6C383818D870026777FC0C18FC
:100B40003060C0FC105D7D386060606060C06060D7
:100B500060606038202D7DC0C0C0C0C0C0C0C0C0B3
:100B6000C0C0C0C0105D7DE0303030303018303053
:100B7000303030E009647444F4BC88FFCA29112481
:100B80001FBECFEFD8E0DEBFCDBF11E0A0E0B1E0E7
:100B9000E0E6F4E602C005900D92A03FB107D9F758
:100BA00026E0A0EFB1E001C01D92A03AB207E1F744
:100BB00015E0CFEBD5E004C02197FE010E94003084
:100BC000CE3BD107C9F70E94C8250C942E320C9455
:100BD0000000089580E090E00895DB011496ED9107
:100BE000FC91159720E030E065E00994DB01149654
:100BF000ED91FC91159720E030E062E00994DB0173
:100C00001496ED91FC91159720E030E063E0099493
:100C1000CF92DF92EF92FF920F931F93CF93DF93C8
:100C20008C017B016A0180E0F601C49181110BC047
:100C3000CF3F09F44CC04C2FB701C8010E94ED050D
:100C4000811143C049C0CF3F11F44FEFF5CFCE3FE4
:100C500009F444C0C03FC8F5C03E38F04C2F4F7077
:100C6000B701C8010E94F60530C0C03D38F04C2FD6
:100C70004F70B701C8010E94FF0527C0C03CF8F0C3
:100C8000D7011496ED91FC91159720E030E040E0FB
:100C900064E0C8010995C295C07FCE5FD0E0CE0167
:100CA0000E942B11D7011496ED91FC91159720E02D
:100CB00030E041E064E0C8010995CE0104C0C7FD01
:100CC00004C08C2F90E00E942B1180E001C081E0D5
:100CD000BFEFCB1ADB0AA8CF80E001C081E0DF9133
:100CE000CF911F910F91FF90EF90DF90CF900895DB
:100CF0000F93FC010150040F84A996A9941718F0D2
:100D0000081728F402C0081750F0041740F42150C7
:100D1000260F83A995A9961720F4281720F480E0C0
:100D200007C0281720F481E0261710F0F8CF81E0E3
:100D30000F9108953F924F925F926F927F928F92A0
:100D40009F92AF92BF92CF92DF92EF92FF920F935A
:100D50001F93CF93DF93EC01062FDCACCBAC5C018F
:100D600084E0A80EB11CE98DFA8DC5010995182FF4
:100D7000E884F984C7010E941E11982E8885998500
:100D80000E942111682EE1E09E1203C02FE0922EF6
:100D900002C099249A94888599850E941411882EFE
:100DA000888599850E941011782E888599850E94E2
:100DB0001811013638F0009729F0E80EF91E91E677
:100DC000892E10C0888599850E941B11013438F046
:100DD000009729F0E80EF91E81E4882E03C0F1E1A6
:100DE000EF0EF11C701630F41C8A1F8A188E1D8AB3
:100DF0001E8A9AC07814C0F3262D30E0F701849142
:100E00008F3F21F4FFEFEF1AFF0A43C0801238C072
:100E1000888599850E941E1197012F5F3F4FF7012A
:100E2000882311F0823091F484918F8BF901249101
:100E3000288FF7013396E491EC8BF7013496E49117
:100E4000ED8BF7013596E491EE8B16C08491982FC7
:100E50009F7092509E8B82958F708D8BF90124919B
:100E6000822F8F70888F22952F702F8BF7013296EB
:100E7000E491E295EF70EC8BE114F10479F454C045
:100E8000F7013296E491E921C9018E0F911DE80E18
:100E9000F91E871409F4A8CF8394B0CF888599856B
:100EA0000E942111882E4F88988C5D885C0CD9187F
:100EB0008E89D81A1D0D092D242D412F652DC501B0
:100EC0000E947806882371F1E80CF11C87E0840DFC
:100ED000482E469446944694312E390C4E01F0E249
:100EE0008F0E911C642C712C1315E1F0052D6701F8
:100EF0008C2D8E19841590F4F60184916E817F817A
:100F000008A319A31BA28AA394014BE3C5010E9465
:100F1000F60FFFEFCF1ADF0A085FEACFE60CF71CE7
:100F20001F5FE2CF8C8901C080E02BAD082E000C42
:100F3000990B820F911D8BAF81E090E0DF91CF91F3
:100F40001F910F91FF90EF90DF90CF90BF90AF90E7
:100F50009F908F907F906F905F904F903F900895FB
:100F6000CF92DF92EF92FF920F931F93CF93DF9375
:100F70008C016B0160E088E00E94141D80E00E94FB
:100F8000810B80E00E94810B61E088E00E94141DCB
:100F900064E670E080E090E00E94801DC0E0D0E058
:100FA0000D2C000CEE08FF08C017D10734F560E0E7
:100FB00088E00E94141D8FEF0E94810B8FEF0E942A
:100FC000810B61E088E00E94141DC701B6010E94F8
:100FD000801D60E088E00E94141D80E00E94810B6B
:100FE00080E00E94810B61E088E00E94141DC7012F
:100FF000B6010E94801D2196D7CFDF91CF911F911E
:101000000F91FF90EF90DF90CF90089590E08C309B
:101010009105F0F4FC01EC5CFF4F8EE20C94003083
:101020000C9468250C944F230C9495230C94A324C2
:101030000C943E250C94A2250C94E9240C940F25C5
:101040000C94E7230C942D240C9473240C94A40B7F
:10105000089590E08C309105F0F4FC01E05CFF4FC6
:101060008EE00C9400300C9468250C944F230C9463
:1010700095230C94A3240C943E250C94A2250C9447
:10108000E9240C940F250C94E7230C942D240C9444
:1010900073240C94A40B08959F92AF92BF92CF92A9
:1010A000DF92EF92FF920F931F93CF93DF93CDB711
:1010B000DEB7ED970FB6F894DEBF0FBECDBF8C0143
:1010C0006B0181E080931A0288E68093F001109210
:1010D00018021092190260E088EC95E00E94DA0C88
:1010E00080911902813208F045C090913E02911121
:1010F000FCCF92E090933E0291E0909340029FEFEC
:1011000090933D021092620280936102A8EFB1E0D9
:1011100021E432E0F9019E2F921B981718F49D915B
:101120009193F9CF1092630280916302806D809356
:10113000630280913F02813061F410923F028091FE
:1011400063028093BB008091BC0083FDF8CF85ECE7
:1011500001C085EE8093BC0080913E028230E1F3B5
:1011600080913D028F3F31F080913D02803211F03D
:1011700080913D02109218021092190210921A02E8
:1011800080913E028111FCCF81E080933E028093EA
:1011900040029FEF90933D021092620296E090937E
:1011A00061028093630280916302806D8093630289
:1011B00080913F02813061F410923F02809163027E
:1011C0008093BB008091BC0083FDF8CF85EC01C00B
:1011D00085EE8093BC0080913E028130E1F38091E6
:1011E0006202873018F48091620201C087E0A1E4B6
:1011F000B2E02BE132E0F9019E2F921B981718F410
:101200009D919193F9CF10923C0280933B0288EC20
:1012100095E00E948E0C682F6695669566956E70B7
:10122000962F990F990F690F8F70680F88EC95E0D2
:101230006DAF0E948E0C982F92959F708F70982E94
:101240002AE0929F900C112488EC95E00E948E0C6D
:10125000982F9695969596959670A92EAA0CAA0CFD
:10126000A90E8F70A80E88EC95E00E948E0C88EC79
:1012700095E00E948E0C982F92959F708F70B82EDB
:10128000EAE09E9FB00C112488EC95E00E948E0C41
:10129000982F92959F708F70E82EFAE09F9FE00C38
:1012A000112488EC95E00E948E0C982F92959F70E7
:1012B0008F70F82E2AE0929FF00C11244AE06DAD59
:1012C000CE01C1960E94F51B4AE0692DCE018B9696
:1012D0000E94F51B4AE06A2DCE0185960E94F51BFF
:1012E0004AE06B2DCE014F960E94F51B4AE06E2D11
:1012F000CE0149960E94F51B4AE06F2DCE01439620
:101300000E94F51BBE01615E7F4FCE0101960E94D7
:10131000401C6FE2CE0101960E942E0CBE01675E5A
:101320007F4F0E94DD1B6FE20E942E0CBE016D5E9E
:101330007F4F0E94DD1B60E20E942E0CBE016B5DA0
:101340007F4F0E94DD1B6AE30E942E0CBE01655D8B
:101350007F4F0E94DD1B6AE30E942E0CBE016F5C72
:101360007F4F0E94DD1BBC01CE010D960E94401CE8
:10137000CE0101960E94F01BBE01615E7F4FCE013F
:1013800001960E94401C6FE2CE0101960E942E0C35
:10139000BE01675E7F4F0E94DD1B6FE20E942E0C34
:1013A000BE016D5E7F4F0E94DD1BBC01CE01079622
:1013B0000E94401CCE0101960E94F01BBE016B5D95
:1013C0007F4FCE01C7960E94401C6AE3CE01C796AC
:1013D0000E942E0CBE01655D7F4F0E94DD1B6AE3FB
:1013E0000E942E0CBE016F5C7F4F0E94DD1BBC0172
:1013F000CE0101960E94401CCE01C7960E94F01BB0
:1014000081E0C816D104D1F0E2E0CE16D10451F14A
:10141000CD28D9F58D859E85F801918380838F85B0
:1014200098899383828389899A89958384831E8688
:101430001D86188A1F861A8A198A27C08F81988567
:10144000F8019183808389859A85938382838B8534
:101450009C859583848318861F821A8619861C862C
:101460001B8613C089819A81F801918380838B81C7
:101470009C81938382838D819E81958384831A824C
:1014800019821C821B821E821D82CE0101960E943F
:10149000F01BCE0107960E94F01BCE010D960E9414
:1014A000F01BCE0143960E94F01BCE0149960E948C
:1014B000F01BCE014F960E94F01BCE0185960E9434
:1014C000F01BCE018B960E94F01BCE01C1960E94AC
:1014D000F01BC801ED960FB6F894DEBF0FBECDBF6E
:1014E000DF91CF911F910F91FF90EF90DF90CF9000
:1014F000BF90AF909F900895CF92DF92EF92FF92AE
:101500001F93CF93DF93C4E6D0E0C12CD12C76019A
:1015100012E410937C0080917A00806480937A00BA
:1015200080917A0086FDFCCF80917800209179002F
:1015300090E0922BBC01990F880B990B0E94722DA1
:101540009B01AC01C701B6010E94E92E6B017C0131
:101550002197F9F620E030E048EC52E40E94552F44
:1015600024E333E34BE251EC0E94D12D20E030E044
:101570004EE753E40E94552F2AE939E94DE951E439
:101580000E94E92EDF91CF911F91FF90EF90DF90A5
:10159000CF9008950F931F93CF93E091EE05F091B4
:1015A000EF05309719F080EE95E009950091E2057E
:1015B0001091E305E0911106F091120682E0099581
:1015C000E0911106F091120681E0099520E030E0EB
:1015D00045E1B80180EE95E00E94F60FC82F882300
:1015E00041F023E136E047E1B80180EE95E00E944A
:1015F000F60FE0911106F091120680E009958C2F0C
:10160000CF911F910F9108950F931F93CF93DF9365
:1016100001E021E840E260E080EE95E00E9478067B
:10162000882389F1C0E010E2DFEF6091E20570915C
:10163000E305C093FC051093FD051092FF05D093C0
:10164000FE052CEF35E04BE380EE95E00E94F60FAF
:10165000C85FC03851F76091E2057091E305C0930F
:10166000FC0580E28093FD051092FF05C093FE0506
:101670002CEF35E04BE380EE95E0DF91CF911F91A9
:101680000F910C94F60FDF91CF911F910F91089558
:101690000E94FD31EF92FF920F931F93CF93DF9340
:1016A000CDB7DEB764970FB6F894DEBF0FBECDBFDF
:1016B0007C01CB01BA018E010F5F1F4F22E044E095
:1016C0000E94B02AFC0101900020E9F73197AF0198
:1016D000481B590BBC01C7010E949D1B811103C00F
:1016E000C7010E94CB1BC70164960FB6F894DEBFFA
:1016F0000FBECDBFDF91CF911F910F91FF90EF9063
:1017000008950F931F93CF93DF93C7E0D0E0082F86
:1017100010E0B8010C2E02C0759567950A94E2F7A7
:101720006170772786E00E94141D61E087E00E94C7
:10173000141D60E087E00E94141D219750F7DF918F
:10174000CF911F910F910895EF92FF920F931F93E6
:10175000CF93DF9300D000D000D0CDB7DEB7F82E06
:101760008DEF96E00E94FD220CED15E082E0F8017D
:1017700083AFF4AE86E991E00E944A238AE2E82E24
:10178000F801E3AEF4AE61E070E0CE0101960E9494
:101790004C084D815E8169817A81C8010E94111ACD
:1017A000CE0101960E94F01BF801E3AE8EE08F0D92
:1017B00084AF62E070E0CE0101960E944C084D813A
:1017C0005E8169817A81C8010E94111ACE01019659
:1017D0000E94F01B26960FB6F894DEBF0FBECDBF59
:1017E000DF91CF911F910F91FF90EF900895CF93CC
:1017F00084EA8093BC0061E080E80E943E11882367
:1018000059F08091B900887F883041F0803131F003
:1018100061E082E00E943511C0E01DC088E780933E
:10182000BB0084E88093BC0062E080E80E943E1127
:10183000882391F38091F101C82FC27081FD0AC005
:101840008091B900887F883129F062E082E00E94AF
:10185000351101C0C1E08C2FCF9108950F931F93D4
:10186000CF93DF9300D0CDB7DEB78C0169831A82A6
:1018700041E050E0BE016F5F7F4F0E949D1B8111D0
:1018800003C0C8010E94CB1BC8010F900F90DF91CD
:10189000CF911F910F91089585ED8093BC008091A9
:1018A000BC0084FDFCCF10923E0208954091880256
:1018B000262F30E0240F311D21323105DCF4209138
:1018C0003E022430C9F4FC0180E090E0861758F411
:1018D000309188022191DC01AA59BD4FA30FB11D9F
:1018E0002C930196F3CF80918802680F6093880251
:1018F00080E0089581E0089582E008950895E091E0
:101900003C0280913B02E81730F4F0E0E55EFD4FC9
:10191000808190E008958FEF9FEF089590913C02B1
:1019200080913B02981750F4E92FF0E0E55EFD4FFF
:10193000208130E09F5F90933C0202C02FEF3FEF89
:10194000C901089580913B0290E020913C02821BE6
:1019500091090895CF92DF92EF92FF920F931F9318
:10196000CF93DF937C01262F972F8A0180911A0253
:10197000882391F0C62FD72F6E01C40ED51ECC152B
:10198000DD0571F06991D701ED91FC910190F08135
:10199000E02DC7010995F3CF642F822F0E94560CCA
:1019A000C801DF91CF911F910F91FF90EF90DF90D1
:1019B000CF900895CF93DF931F92CDB7DEB76983A1
:1019C00020911A022223D1F020911902203240F0F6
:1019D00021E030E0FC013383228380E090E015C0F9
:1019E00080911802E82FF0E0E850FE4F9981908333
:1019F0008F5F809318028093190205C061E0CE01C9
:101A000001960E94560C81E090E00F90DF91CF91FB
:101A10000895089580E00895DC011696ED91FC91FB
:101A2000179712968C91481B477081E090E001C097
:101A3000880F4A95EAF7E60FF11D3081222311F055
:101A4000832B02C08095832380830895FB0141810D
:101A5000DC0112962C911297421768F013962C9184
:101A60001397241740F0608115962C91621718F493
:101A700024810C940C0D0895FC0180819281980FB3
:101A800092832181921760F494819F5F9483938164
:101A9000890F821710F08FEF820F838381E0089502
:101AA00080E00895FC01128280818150838314823A
:101AB000089580E00895FC01E60FF11D849190E007
:101AC000982F88273196E4918E0F911D08951092DA
:101AD00065021092640208958093F1011092B9009A
:101AE00084FF02C08CE001C088E48093B8000C94AD
:101AF000670D8F929F92AF92BF92CF92DF92FF922B
:101B00000F931F93CF93DF9300D0CDB7DEB76C0157
:101B10008B01F42E490120E1421709F467C0241714
:101B200000F13AE0431729F18FE0481369C041E022
:101B3000C6010E94FF0540E0B801C6010E94F605FB
:101B400041E8B801C6010E94ED05F4014081B801E9
:101B5000C6010E94ED0540E0B801C6010E94FF05E4
:101B600008C1A1E14A1709F444C0B5E14B1791F04F
:101B700047C0DB011496ED91FC91159720E030E011
:101B800042E061E009954EEB52E0B801C6010E94C7
:101B9000080636C0FB01A280B38046EB52E00E94EB
:101BA0000806D50114964C91406BB801C6010E94FD
:101BB000ED0541E0B801C6010E94F605F501268158
:101BC0003781D8011496ED91FC911597D5011596A2
:101BD0004C9166E0C6010995811102C080E0CAC03F
:101BE00040E0B801C6010E94FF050AC04DEA52E07C
:101BF00002C042EA52E0B801C6010E940806B9C01C
:101C0000D80112960D911C911397B2E3FB1609F4BB
:101C100074C0BF15B8F0E5E1FE1609F47BC0F7E12A
:101C2000FF1609F48DC024E1F212A3C0D801169664
:101C3000ED91FC91179715968C919F01280F311DFE
:101C4000C90160C036E4F31609F48AC087E4F816C7
:101C500009F48AC0ABE3FA128CC0F401818193814C
:101C6000913029F0933031F4482F885004C048E077
:101C7000480F01C0482F21E0D80113963C91381736
:101C800008F420E031E0F8015281451708F430E013
:101C900051E0481708F050E0822F852B382319F4C3
:101CA000252309F466C0D4011296FC90913051F0BE
:101CB00030F0923049F0933051F42FEF09C020E01A
:101CC00031E007C021E004C020E03FEF02C020E087
:101CD00030E0F7FE08C0B401C8012A8339830E94AE
:101CE000260D39812A81F4018081830F80838181CF
:101CF000820F8183FF0C69F73CC0B401C8010E94C8
:101D0000260D37C01192E817F907E1F7C8010E94C4
:101D1000520D2FC0C8010E943C0D882309F45ECFEC
:101D2000D8011696ED91FC91179715968C919F010D
:101D3000280F311DC9011192E817F907E1F719C001
:101D4000D4011C92F801828111968C9311978581A0
:101D5000815012968C931297838113968C9309C0AD
:101D6000D80115968C9103C0D80111968C91F4017D
:101D7000808381E00F900F90DF91CF911F910F91A1
:101D8000FF90DF90CF90BF90AF909F908F9008957D
:101D90001F920F920FB60F9211242F933F934F93E0
:101DA0005F936F937F938F939F93AF93BF93EF93C3
:101DB000FF938091B900887F803609F49CC068F554
:101DC000883209F45BC090F4803109F454C038F4CF
:101DD000882309F4F6C0883009F44DC0F6C0883174
:101DE00009F44CC0803209F45DC0EFC0803409F4BE
:101DF00068C048F4803309F455C0883309F0E5C061
:101E000080933D02D8C0803509F44FC0883509F46D
:101E10005DC0883409F0D9C0D6C0883909F4C7C07C
:101E2000A8F4883709F467C038F4883609F463C029
:101E3000803709F460C0C9C0883809F4B8C0803957
:101E400009F45FC0803809F0C0C05BC0803B09F472
:101E500086C038F4803A09F466C0883A09F47FC035
:101E6000B4C0803C09F4A7C0883C09F4A4C0883BF6
:101E700009F48AC0AAC08091630210C090916202E6
:101E800080916102981770F5E091620281E08E0FF7
:101E900080936202F0E0EF5BFD4F80818093BB0096
:101EA00085EC86C080933D028EC0E091620281E0A5
:101EB0008E0F809362028091BB00F0E0EF5BFD4FDC
:101EC000808390916202809161026EC0E091620213
:101ED00081E08E0F809362028091BB00F0E0EF5BA7
:101EE000FD4F80838091400281116DC081E080931D
:101EF0003F0284EA61C083E080933E021092AC020C
:101F0000CFCF8091AC02803208F051C0E091AC029A
:101F100081E08E0F8093AC028091BB00F0E0E4572B
:101F2000FD4F8083BDCF85EC8093BC0010923E02B4
:101F30008091AC02803230F4E091AC02F0E0E457E2
:101F4000FD4F10826091AC0270E0E0918A02F09146
:101F50008B028CE892E009951092AC0236C084E0C6
:101F600080933E021092890210928802E0918602CC
:101F7000F0918702099580918802811105C081E066
:101F80008093880210926602E091890281E08E0FB0
:101F900080938902F0E0EA59FD4F80818093BB0075
:101FA0009091890280918802981708F479CF85E88A
:101FB0008093BC000AC085EC8093BC0010923E0266
:101FC00004C010923D020E944C0CFF91EF91BF9112
:101FD000AF919F918F917F916F915F914F913F91C1
:101FE0002F910F900FBE0F901F901895DB01ED9170
:101FF000FC910994CF93DF931F92CDB7DEB79E017A
:102000002F5F3F4F47E40E94F60F89810F90DF91C9
:10201000CF910895CF93DF931F92CDB7DEB79E0186
:102020002F5F3F4F46E40E94F60F89810F90DF91AA
:10203000CF9108958F929F92BF92CF92DF92EF92AD
:10204000FF920F931F93CF93DF931F92CDB7DEB70D
:102050008C014901FB01E280F380423309F457C04F
:1020600048F44C3209F453C04D3209F464C047318E
:10207000D9F009C0463409F440C0473409F441C0DE
:102080004B3309F458C09401B701C8010F90DF9198
:10209000CF911F910F91FF90EF90DF90CF90BF9065
:1020A0009F908F900C94F60F47E1B7010E94F60FB6
:1020B000B701C8010E940A10F401B280B094B80EB2
:1020C000B701C8010E940A10F401D080D094D80E44
:1020D000B701C8010E94FA0FF401C380C094C80E72
:1020E000B701C8010E94FA0FF40191819095890F00
:1020F000B082C182D28283833BC0B7010E940A10A2
:1021000003C0B7010E94FA0FF401808331C0B70108
:10211000C80149830E94FA0FF401D180D094D80EEF
:10212000B701C8010E940A10F40190819095890FAF
:102130008083D18217C0B701C80149830E94FA0F7A
:10214000F401D180D094D80EB701C8010E940A10C2
:10215000F40190819095890F8083D18283818E5F75
:102160008370838394014981B701C8010E94F60FEF
:1021700081E00F90DF91CF911F910F91FF90EF9031
:10218000DF90CF90BF909F908F900895CF93DF9373
:10219000EC016A817B810E940A1088836A817B81BD
:1021A000CE010E94FA0F89836A817B8120E030E0B2
:1021B00048E4CE010E94F60F8B879E012D5C3F4FB5
:1021C0006A817B8147E1CE01DF91CF910C94F60FBC
:1021D0000F931F93CF93DF93EC010A811B81E9A931
:1021E000FAA982E0099520E030E04AE0B801CE018A
:1021F0000E94F60F182FE9A9FAA983E00995E9A929
:10220000FAA980E00995112329F0CE010E94C61099
:1022100081E001C080E0DF91CF911F910F9108957F
:102220000B96FC01849108950A96FC01849108950F
:1022300068E00C945B0D66E00C945B0DFC018491EE
:1022400008950E941E11882321F0823011F083E04E
:10225000089586E008952EE93FE0009729F0F901FE
:102260003197F1F70197F9CF089590916502911197
:1022700004C0809365026093640208951F93CF9316
:10228000DF9300D0CDB7DEB720ED37E03A83298366
:102290009091BC00982399F429813A81232B51F421
:1022A0008091F101182F127081FD09C081E00E9418
:1022B000351106C029813A8121503109E7CF11E05B
:1022C000812F0F900F90DF91CF911F91089584E996
:1022D0008093BC0064E080E10C943E11CF93809326
:1022E000BB0084E88093BC0063E080E80E943E115C
:1022F000C82F882389F08091F101C82FC27081FD19
:102300000AC08091B900887F883229F063E082E0BA
:102310000E94351101C0C1E08C2FCF910895CF9359
:10232000DF93FC0123A5222379F0EC010E94F70B37
:10233000811102C080E009C08EA1811180E40E9459
:102340006E118823B9F31BA681E0DF91CF91089528
:102350000F931F93CF93C42F89016330C1F050F4C2
:10236000613081F0623009F048C0FC0146A321E0F1
:1023700023A743C0663011F1673079F1653009F069
:102380003CC00EC0FC0186A50E946C0D36C0FC014D
:1023900016A221E023A7411130C00E9467112DC071
:1023A0000E948F11811104C00E94671180E026C035
:1023B0008C2F0E946E11811120C0F6CF0E948F11C8
:1023C000882391F3CC23C9F0F80181918F010E94F9
:1023D0006E11882349F3C150F5CF0E948F118823D5
:1023E00019F3CC2351F0F80184910E946E118823D7
:1023F00029F00F5F1F4FC150F4CF81E0CF911F91A3
:102400000F9108958EBD00000DB407FEFDCF8EB56F
:1024100008958FEF0C940212DC015996ED91FC9116
:102420005A973097B9F083899489A589B6894285EE
:10243000538564857585841B950BA60BB70B811599
:1024400020E89207A105B10538F08FEF9FE7A0E0E3
:10245000B0E0089580E090E00895CF93DF931F925D
:10246000CDB7DEB76983DC01ED91FC910280F38189
:10247000E02D41E050E0BE016F5F7F4F09950F9066
:10248000DF91CF910895CF93DF93EC018D81882365
:10249000A1F18C8187FF2DC06E857F858889998900
:1024A00041E00E944D1E882341F1EA8980E2E89FC5
:1024B000F0011124DF01AF54BD4F1097F1F08D8171
:1024C000823050F44B895C896D897E895C964D938E
:1024D0005D936D937C935F978F89988DA98DBA8D4D
:1024E000EF54FD4F938F828FB58BA48B8C818F77A8
:1024F0008C83DF91CF910C94101E80E0DF91CF91FF
:102500000895FC01818D928D009711F00C94431277
:1025100008950F931F93CF93DF93EB010E94BA1D91
:102520008B010E9409128F3F49F00E94BA1D601B67
:10253000710B6C177D07A8F380E001C081E0DF918B
:10254000CF911F910F91089561E0FC0184810E9459
:10255000141D8091AD0281111092AD020895CF93A8
:10256000DF93EC018E81882389F08F8198859C010F
:102570002F5F3F4F38872F838230924018F40E949C
:102580000912F3CFCE010E94A4121E82DF91CF91D7
:102590000895CF92DF92FF920F931F93CF93DF9313
:1025A00000D000D0CDB7DEB76C01F62E29833A8378
:1025B0004B835C830E94AF128091AD0229813A81E6
:1025C0004B815C81811109C081E08093AD029091C3
:1025D0007D0580917E059CBD8DBD60E0F601848106
:1025E00029833A834B835C830E94141D6CE271E063
:1025F000C6010E9489128F2D80640E94021208E198
:1026000010E05C814B813A812981DA01C901002EF9
:1026100004C0B695A795979587950A94D2F7298314
:102620003A834B835C830E9402120850110929816E
:102630003A814B815C81083FFFEF1F0731F7FF2094
:1026400029F088E0F81204C087E803C085E901C0DA
:102650008FEF0E94021210E00E940912F601828799
:1026600087FF04C01F3F11F01F5FF6CF0F900F9040
:102670000F900F90DF91CF911F910F91FF90DF90FE
:10268000CF9008958F929F92AF92BF92CF92DF9298
:10269000EF92FF920F931F93CF93DF93EC018D8105
:1026A000811102C080E077C00B891C892D893E8989
:1026B0000417150726073707A8F36A017B01823044
:1026C00029F4CA86DB86EC86FD860DC0C114D104D0
:1026D000E104F10451F41E821F82188619861A86BD
:1026E0001B861C861D8681E056C08A849B84AC8430
:1026F000BD84EB8DFC8D258530E0275F3F4FB50114
:10270000A4014150510961097109022E04C0769556
:102710006795579547950A94D2F7D701C601019757
:10272000A109B10904C0B695A795979587952A95F3
:10273000D2F784179507A607B70720F089288A28BB
:102740008B2849F44F89588D698D7A8D4E835F832C
:102750006887798704C0841B950BA60BB70B4C01C7
:102760005D018E010A5F1F4F81149104A104B10421
:1027700009F4A7CF4E815F816885798598018B8D9B
:102780009C8D0E94361F91E0891A9108A108B1081A
:102790008111EACF87CFDF91CF911F910F91FF90E9
:1027A000EF90DF90CF90BF90AF909F908F90089563
:1027B0008F929F92AF92BF92CF92DF92EF92FF9251
:1027C0000F931F93CF93DF9300D000D0CDB7DEB728
:1027D0007C0180E2689F6001112496012F543D4FD7
:1027E000D9011B969C91917121F0842F827409F07C
:1027F00097C0142FF701628B809106019091070119
:10280000A0910801B091090186879787A08BB18BB1
:10281000F601EF54FD4F4489558960E070E0BA013C
:1028200055274427D70157964D935D936D937C931D
:102830005A97828D938DA0E0B0E0482B592B6A2BDC
:102840007B2BD70157964D935D936D937C935A974D
:10285000D9011B968C91887159F4848D958DA68D24
:10286000B78DF701838B948BA58BB68B81E012C05B
:10287000803109F055C097012D5E3F4FD7015B961F
:102880008D919C915C970E94BA1F882309F448C0DF
:1028900084E0F7018583812F8F70D70114968C9384
:1028A0001497F70116821782108611861A961D92C8
:1028B0001D921D921C921D9716FF34C015968C9187
:1028C000813071F511FF2CC0F70143895489658966
:1028D0007689452B462B472B09F461C040E050E038
:1028E000BA01C7010E9442138823D1F0F7018788FB
:1028F000908CA18CB28CC38CD48C82E090E0A0E050
:10290000B0E0F60180839183A283B3839E012F5FA1
:102910003F4FB501A401C6010E94361F811104C0BA
:1029200080E03DC081E03BC000E010E09801B501CF
:10293000A401C6010E94961E882391F389809A8083
:10294000AB80BC80D60157968C91803129F088EFFE
:102950009FEFAFEFBFE004C088EF9FEFA0E0B0E0D3
:1029600088169906AA06BB0688F2D70157961D92CB
:102970001D921D921C925A97F701138A148A158A88
:10298000168A848180688483C7010E944312882349
:1029900039F240E050E0BA01C7010E9442130F90A3
:1029A0000F900F900F90DF91CF911F910F91FF909B
:1029B000EF90DF90CF90BF90AF909F908F90089551
:1029C000CF93DF93EC010E944312882311F01D8204
:1029D00081E0DF91CF9108953F924F925F926F9285
:1029E0007F928F929F92AF92BF92CF92DF92EF929F
:1029F000FF920F931F93CF93DF93CDB7DEB72C9742
:102A00000FB6F894DEBF0FBECDBF5C01DC015B9654
:102A10008D909C905C971696CD90DD90ED90FC90FB
:102A20001997C114D104E104F10439F0BFEFCB1AB6
:102A3000DB0AEB0AFB0A312C07C0F401C080D1800D
:102A4000E280F38033243394F40181859285A38559
:102A5000B4859C01AD012F5F3F4F4F4F5F4F2987DA
:102A60003A874B875C87260137011D821E821F82B1
:102A70001886F40181859285A385B4852D813E81D8
:102A80004F815885281739074A075B0708F063C04C
:102A900089859A85AB85BC858C159D05AE05BF05DE
:102AA00050F482E0C82ED12CE12CF12C92E0492E7A
:102AB000512C612C712C9E012F5F3F4FB701A60155
:102AC000C4010E94361F882309F445C089819A8178
:102AD000AB81BC81892B8A2B8B2B41F026013701DE
:102AE0009FEF491A590A690A790A05C0C414D50426
:102AF000E604F70491F02D813E814F8158852F5FC8
:102B00003F4F4F4F5F4F2D833E834F8358873FEF9B
:102B1000C31AD30AE30AF30AACCF0FEF1FEF2FEF6C
:102B20003FE0B301A201C4010E94961E882399F0E0
:102B3000D50116964D915D916D917C911997411536
:102B400051056105710549F093018201C4010E949C
:102B5000961E811102C080E02AC0D50116964D92C2
:102B60005D926D927C921997332051F0D301C2018E
:102B70000196A11DB11DF40180839183A283B383CB
:102B8000F5018789908DA18DB28D892B8A2B8B2B96
:102B900069F4D50157964D925D926D927C925A9749
:102BA00014968C911497806814968C9381E02C96DF
:102BB0000FB6F894DEBF0FBECDBFDF91CF911F914E
:102BC0000F91FF90EF90DF90CF90BF90AF909F90CC
:102BD0008F907F906F905F904F903F900895AF924D
:102BE000BF92CF92DF92EF92FF920F931F93CF93FA
:102BF000DF93EC016901C801820F931F813092407D
:102C000008F070C08E81882371F088819981AA8133
:102C1000BB81481759076A077B0729F48F8198857C
:102C2000C816D906B0F5488359836A837B838B85A0
:102C3000833039F089E0440F551F661F771F8A954E
:102C4000D1F79A01AB0161E1CE010E94C91288233C
:102C500019F083E08D8346C00E94BA1D5B010E947B
:102C600009128A878F3F49F40E94BA1D6A197B09AD
:102C70006D327140A0F38FE003C08E3F31F08DE0E4
:102C80008D83CE010E94A4122DC018861F8281E080
:102C90008E838F8198858C159D0540F40E940912C2
:102CA0008F819885019698878F83F3CF6701E00E17
:102CB000F11ECE14DF0431F00E940912F601819357
:102CC0006F01F7CF8F819885080F191F18870F8321
:102CD0008985882319F00115124048F0CE010E9421
:102CE000AF1205C0CE010E94A41280E001C081E0B5
:102CF000DF91CF911F910F91FF90EF90DF90CF90D8
:102D0000BF90AF900895EF92FF920F931F93CF93D0
:102D1000DF93EC017901411551056105710511F44D
:102D200082E13CC08B85833039F089E0440F551F28
:102D3000661F771F8A95D1F79A01AB0168E1CE0132
:102D40000E94C912882311F084E028C08EEF0E94EF
:102D5000021287018EEFF81AF80181918F010E940B
:102D600002120E151F05C1F78FEF0E9402128FEF9E
:102D70000E9402120E9409128A878F71853031F0F9
:102D800081E18D83CE010E94A41209C068E572E042
:102D9000CE010E948912811107C085E18D83CE0189
:102DA0000E94A41280E013C020E030E0A9016DE091
:102DB000CE010E94C912811104C00E940912882309
:102DC00011F084E1EBCFCE010E94A41281E0DF91EB
:102DD000CF911F910F91FF90EF9008952F923F9206
:102DE0004F925F926F927F928F929F92AF92BF921B
:102DF000CF92DF92EF92FF920F931F93CF93DF93C7
:102E000000D000D000D0CDB7DEB78C015B011A0135
:102E1000DC0115968C9115978130C9F414968C912C
:102E200081FF15C082FF1BC0F80143895489658961
:102E3000768982859385A485B58584179507A6072D
:102E4000B70769F0C8010E944213811108C081E0F0
:102E500090E0F8019383828380E090E03EC16101BD
:102E60002091AE023091AF023E832D8382C0D80103
:102E70005B968D919C915C97FC0174802FEF270DE0
:102E80002A013B0139E076946794579447943A9528
:102E9000D1F7722E74207A01F1E0FF22772009F435
:102EA00074C080E092E08E199F0946018C159D0543
:102EB00008F44C01D8015B962D913C915C971696D5
:102EC0008D919D910D90BC91A02D0297A109B10902
:102ED000F901058404C0880F991FAA1FBB1F0A941B
:102EE000D2F74685578560897189840F951FA61F83
:102EF000B71F9C01AD01270D311D411D511D290139
:102F00003A01811432E0930609F086C080910601EF
:102F100090910701A0910801B091090184159505D0
:102F2000A605B70559F48FEF9FEFDC0180930601EA
:102F300090930701A0930801B09309019501B30193
:102F4000A2018D819E810E948316882309F47FCF80
:102F50009EEFB91AC818D908F80182859385A4850F
:102F6000B585880D991DA11DB11D82879387A48702
:102F7000B587D8011A964D915D916D917C911D9701
:102F8000C114D10409F073CF87C0E114F10409F032
:102F900088CF16964D915D916D917C911997411551
:102FA00051056105710559F457968D919D910D90CC
:102FB000BC91A02D0097A105B10541F521C09E014E
:102FC0002F5F3F4F0E94361F882309F446CF898127
:102FD0009A81AB81BC81F801238D348DF901278959
:102FE000203129F048EF5FEF6FEF7FE004C048EF3A
:102FF0005FEF60E070E084179507A607B70730F031
:10300000C8010E94EC1481114CCF21CFF8018683B6
:103010009783A087B18745CFE114F10429F5D80142
:103020001A964D915D916D917C911D9753968D915E
:103030009D910D90BC91A02D481759076A077B07F9
:1030400098F00E94101E882309F401CF40920601D7
:103050005092070160920801709209018091B002BC
:1030600081608093B00208C041E0C301B2010E94B8
:103070004D1E882309F4EBCED501F701EF54FD4F27
:10308000CF01880D991DE817F90719F02D912193AB
:10309000FACFA80CB91C5ECF53968D919D910D90DF
:1030A000BC91A02D84179507A607B70740F4F80137
:1030B000438B548B658B768B848180688483D801A5
:1030C00014968C9183FD02C0C10107C0C8010E9403
:1030D0004312882309F4BBCEF7CF26960FB6F89497
:1030E000DEBF0FBECDBFDF91CF911F910F91FF903B
:1030F000EF90DF90CF90BF90AF909F908F907F9098
:103100006F905F904F903F902F900895CF93DF93F3
:10311000EC01898D9A8D009739F481E090E09B83D2
:103120008A8380E090E00BC0FC01138212820E942F
:10313000EE16E98DFA8D22813381232B71F7DF9111
:10314000CF910895EF92FF920F931F93CF93DF9348
:10315000EC017B018A011B821A8288EE93E0A0E0D9
:10316000B0E08C839D83AE83BF8382E291E099833C
:1031700088838DE190E00E9406309A8F898F0097B6
:1031800079F02DE1F701DC0101900D922A95E1F72C
:103190004CE050E0B801CE010C960E941F32188E10
:1031A000DF91CF911F910F91FF90EF9008953F9283
:1031B0004F925F926F927F928F929F92AF92BF9247
:1031C000CF92DF92EF92FF920F931F93CF93DF93F3
:1031D0001F92CDB7DEB7FC018581882309F4D8C0E2
:1031E000848180FFD5C03324339443895489658911
:1031F000768982859385A485B585481759076A071E
:103200007B0709F4312C6F01832D90E09E012F5F25
:103210003F4F49013F0136E0630E711C4090AE0202
:103220005090AF02892B09F47CC0D6011A964D91BB
:103230005D916D917C911D975A01B1E0BB22F60121
:1032400025817A018B0189E016950795F794E7941B
:103250008A95D1F7838D948D223061F4FC01828DA3
:10326000938DA48DB58DBC01CD016E0D7F1D801F8A
:10327000911F44C0DC0114962C912150122F1E2165
:10328000A114B104D1F4111118C0452B462B472BC2
:1032900051F4F6018789908DA18DB28D8683978335
:1032A000A087B1870AC046815781608571859301E7
:1032B0000E94361F882309F46BC0F601238D348DDC
:1032C00086819781A085B1850297A109B109F9018D
:1032D000058404C0880F991FAA1FBB1F0A94D2F748
:1032E0004685578560897189840F951FA61FB71F72
:1032F000BC01CD01610F711D811D911DD601149678
:103300002C9126FF13C00091060110910701209116
:10331000080130910901601771078207930749F589
:1033200005C03320A9F1898190E034C040E00E94BB
:103330004D1E882369F1F501EF54FD4FD401CF01F3
:103340000196E817F90719F021912D93FACFEFEFC5
:103350008E1A9E0AF60182859385A485B58501960D
:10336000A11DB11D82879387A487B58780E090E077
:1033700059CF740101E010E09501AB01BC01C2011D
:103380000E94EF15882321F0BFEF8B1A9B0AE2CF32
:103390008FEF9FEF0F90DF91CF911F910F91FF90D3
:1033A000EF90DF90CF90BF90AF909F908F907F90E5
:1033B0006F905F904F903F900895FC01818D928DAA
:1033C000009711F00C94D7188FEF9FEF08950F938B
:1033D0001F93CF93DF93FC01818D928D0097B9F0FD
:1033E000EF010E94D7188C010F3F8FEF180791F063
:1033F000898D9A8DFC014285538564857585415080
:103400005109610971090E944213C80105C080E099
:1034100090E002C08FEF9FEFDF91CF911F910F914E
:103420000895CF92DF92EF92FF920F931F93CF9365
:10343000DF936C017A018B01C0E0D0E0CE15DF058F
:1034400089F0D8016D918D01D601ED91FC9101902B
:10345000F081E02DC6010995892B11F47E0102C08F
:103460002196ECCFC701DF91CF911F910F91FF9073
:10347000EF90DF90CF900895FC01538D448D252F60
:1034800030E0842F90E0821B930B541710F0CF96FE
:10349000089501970895FC01918D828D981761F030
:1034A000828DDF01A80FB11D5D968C91928D9F5F7B
:1034B0009F73928F90E008958FEF9FEF0895FC0126
:1034C000918D828D981731F0828DE80FF11D858DD9
:1034D00090E008958FEF9FEF0895FC01918D228D6C
:1034E000892F90E0805C9F4F821B91098F739927F1
:1034F000089580EE94E00E946D1A21E0892B09F472
:1035000020E0822F0895FC01848DDF01A80FB11DFA
:10351000A35ABF4F2C91848D90E001968F73992709
:10352000848FA689B7892C93A089B1898C918064F6
:103530008C93938D848D981306C00288F389E02DB7
:1035400080818F7D80830895EF92FF920F931F9368
:10355000CF93DF93EC0181E0888F9B8D8C8D981346
:1035600005C0E889F989808185FD24C0F62E0B8D80
:1035700010E00F5F1F4F0F731127E02E8C8DE812A4
:103580000CC00FB607FCFACFE889F989808185FF66
:10359000F5CFCE010E94831AF1CF8B8DFE01E80F8B
:1035A000F11DE35AFF4FF0820B8FEA89FB8980817E
:1035B000806207C0EE89FF896083E889F98980818C
:1035C0008064808381E090E0DF91CF911F910F9123
:1035D000FF90EF900895CF93DF93EC01888D8823BF
:1035E000C9F0EA89FB89808185FD05C0A889B98970
:1035F0008C9186FD0FC00FB607FCF5CF808185FF4B
:10360000F2CFA889B9898C9185FFEDCFCE010E94B8
:10361000831AE7CFDF91CF91089580E090E0892B66
:1036200029F00E94791A81110C94000008958330CA
:1036300081F028F4813099F08230A1F0089587302C
:10364000A9F08830B9F08430D1F4809180008F7D6A
:1036500003C0809180008F7780938000089584B5A7
:103660008F7702C084B58F7D84BD08958091B000AE
:103670008F7703C08091B0008F7D8093B000089554
:103680003FB7F8948091BA049091BB04A091BC0418
:10369000B091BD0426B5A89B05C02F3F19F0019637
:1036A000A11DB11D3FBFBA2FA92F982F8827820FC8
:1036B000911DA11DB11DBC01CD0142E0660F771F18
:1036C000881F991F4A95D1F708950F931F93CF93A1
:1036D000DF93EC0188819981009729F02A813B8151
:1036E0002617370788F48B016F5F7F4F0E943331B5
:1036F000009761F0998388831B830A832C813D8125
:10370000232B11F4FC01108281E001C080E0DF91E5
:10371000CF911F910F910895CF93DF931F92CDB753
:10372000DEB7698341E050E0BE016F5F7F4F0E94CA
:10373000EE160F90DF91CF910895EF92FF920F93C5
:103740001F93CF93DF93FC012481358161157105AF
:1037500011F480E019C041155105A9F07B01EC017D
:103760008A01020F131FB8010E94651B882389F389
:10377000288139818C819D81B701820F931F0E941E
:1037800018321D830C8381E0DF91CF911F910F913F
:10379000FF90EF900895CF93DF93EC01888199819A
:1037A000009711F00E949B30198218821D821C82A2
:1037B0001B821A82DF91CF910895CF93DF93EC01A2
:1037C000FB0144815581608171810E949D1B8111A3
:1037D00003C0CE010E94CB1BCE01DF91CF91089593
:1037E000FC01808191810C949B30CF92DF92EF920B
:1037F000FF920F931F93CF93DF93CDB7DEB7299737
:103800000FB6F894DEBF0FBECDBF8C01862FF80136
:1038100011821082138212821582148250E09E015E
:103820002F5F3F4F6901B90190E00E94D02AF60155
:1038300001900020E9F731977F01EC18FD08B701EE
:10384000C8010E94651B811104C0C8010E94CB1BE6
:1038500008C0F801F582E482B601808191810E945E
:10386000183229960FB6F894DEBF0FBECDBFDF9198
:10387000CF911F910F91FF90EF90DF90CF9008951F
:10388000EF92FF920F931F93CF93DF93FC0111826E
:10389000108213821282158214828617970739F1DB
:1038A000DB010D911C9111970115110501F1EC013E
:1038B0001496ED90FC901597B7010E94651B81113D
:1038C00009C0CE01DF91CF911F910F91FF90EF9032
:1038D0000C94CB1BFD82EC82B80188819981DF9129
:1038E000CF911F910F91FF90EF900C941832DF91C0
:1038F000CF911F910F91FF90EF9008956115710581
:1039000079F0FB0101900020E9F73197AF01461BE8
:10391000570BDC01ED91FC910280F381E02D0994BD
:1039200080E090E008951F920F920FB60F9211243D
:103930002F933F934F935F936F937F938F939F93B7
:10394000AF93BF93EF93FF9380EE94E00E94831AAE
:10395000FF91EF91BF91AF919F918F917F916F9167
:103960005F914F913F912F910F900FBE0F901F903D
:1039700018951F920F920FB60F9211242F938F93C9
:103980009F93EF93FF93E091F004F091F104808115
:10399000E091F604F091F70482FD12C090818091CD
:1039A000F9048F5F8F732091FA04821751F0E09130
:1039B000F904F0E0E052FB4F958F8093F90401C0C9
:1039C0008081FF91EF919F918F912F910F900FBE6A
:1039D0000F901F901895CF93DF93282F30E0F901B7
:1039E000E65CFC4F8491F901EA5DFC4FD491F9014A
:1039F000EE5EFC4FC491CC2391F081110E94171B05
:103A0000EC2FF0E0EE0FFF1FE85FFC4FA591B491A3
:103A1000EC91ED2381E090E021F480E002C080E0B1
:103A200090E0DF91CF9108951F93CF93DF93282FDC
:103A300030E0F901E65CFC4F8491F901EA5DFC4F4E
:103A4000D491F901EE5EFC4FC491CC23C9F0162F3E
:103A500081110E94171BEC2FF0E0EE0FFF1FE250C8
:103A6000FD4FA591B4918FB7F894111105C09C91A9
:103A7000ED2FE095E92302C0EC91ED2BEC938FBF85
:103A8000DF91CF911F910895CF93DF9390E0FC01D8
:103A9000EA5DFC4F2491FC01EE5EFC4F849188238B
:103AA00061F190E0880F991FFC01EC50FD4FC5912A
:103AB000D491FC01E250FD4FA591B491611109C070
:103AC0009FB7F8948881209582238883EC912E23D8
:103AD0000BC0623061F49FB7F8943881822F8095D3
:103AE00083238883EC912E2B2C939FBF06C08FB726
:103AF000F894E8812E2B28838FBFDF91CF91089512
:103B00008F929F92AF92BF92CF92DF92EF92FF92ED
:103B10006B017C010E94401B4B015C01C114D1046C
:103B2000E104F104F1F00E94401BDC01CB01881993
:103B30009909AA09BB09883E9340A105B10570F314
:103B400021E0C21AD108E108F10888EE880E83E06E
:103B5000981EA11CB11CC114D104E104F10419F791
:103B6000DDCFFF90EF90DF90CF90BF90AF909F9010
:103B70008F9008952FB7F8946091B6047091B704B0
:103B80008091B8049091B9042FBF08951F920F92AD
:103B90000FB60F9211242F933F938F939F93AF9360
:103BA000BF938091B6049091B704A091B804B091EE
:103BB000B9043091B50423E0230F2D3720F401968A
:103BC000A11DB11D05C026E8230F0296A11DB11D40
:103BD0002093B5048093B6049093B704A093B804DF
:103BE000B093B9048091BA049091BB04A091BC0435
:103BF000B091BD040196A11DB11D8093BA049093AC
:103C0000BB04A093BC04B093BD04BF91AF919F913E
:103C10008F913F912F910F900FBE0F901F9018958D
:103C2000CF93DF938091B002882399F1C091AE02C7
:103C3000D091AF02409106015091070160910801B7
:103C40007091090121EB32E0CE010E9483168111AF
:103C500002C080E01FC04091B1045091B204609155
:103C6000B3047091B404411551056105710579F0F3
:103C700021EB32E0CE010E948316882351F310928B
:103C8000B1041092B2041092B3041092B4041092D2
:103C9000B00281E0DF91CF9108958F929F92AF9211
:103CA000BF92EF92FF920F931F93CF934B015C0152
:103CB000C42F8091060190910701A0910801B09155
:103CC000090188159905AA05BB0501F10E94101E7E
:103CD000811102C080E020C081EBE82E82E0F82E46
:103CE00000E012E020E030E0B501A4018091AE02D6
:103CF0009091AF020E94EF15882361F38092060134
:103D000090920701A0920801B09209018091B0023F
:103D1000C82BC093B00281E0CF911F910F91FF900B
:103D2000EF90BF90AF909F908F9008954F925F92C9
:103D30006F927F928F929F92AF92BF92CF92DF92BB
:103D4000EF92FF920F931F93CF93DF93EC016A01E1
:103D50007B0128013901423051056105710510F4DC
:103D600080E073C089859A85AB85BC850196A11DCD
:103D7000B11D84179507A607B70790F38B889C8819
:103D8000AD88BE888F89803129F4BB27AF2D9E2D49
:103D90008D2D09C0DB01CA0147E0B695A79597951F
:103DA00087954A95D1F7880E991EAA1EBB1E809151
:103DB000060190910701A0910801B09109018816B0
:103DC0009906AA06BB0679F48F898031A1F4DD2417
:103DD000EE24FF24C601880F991FFC01EF54FD4F0C
:103DE0005182408219C040E0C501B4010E944D1EBD
:103DF0008111EACFB5CFE894C7F8DD24EE24FF2483
:103E0000C601880F991F880F991FFC01EF54FD4FC1
:103E100040825182628273828091B002816080937D
:103E2000B0028A89823080F08D819E81AF81B88511
:103E3000880E991EAA1EBB1E8092B1049092B204F5
:103E4000A092B304B092B40481E0DF91CF911F91AE
:103E50000F91FF90EF90DF90CF90BF90AF909F9029
:103E60008F907F906F905F904F9008958F929F9268
:103E7000AF92BF92CF92DF92EF92FF920F931F9378
:103E8000CF93DF93FC0181859285A385B48501964C
:103E9000A11DB11D84179507A607B70710F480E090
:103EA0005CC083899489A589B689C789C03129F402
:103EB000852E962EA72EBB2409C04A015B01C7E0C0
:103EC000B694A79497948794CA95D1F7E9016A01AB
:103ED0007B018F01BC01CD01680D791D8A1D9B1DE1
:103EE0008090060190900701A0900801B090090110
:103EF000681579058A059B0599F4F8018789803151
:103F0000A9F4B701A601552766277727440F551F47
:103F1000FA01EF54FD4F80819181A0E0B0E018C01C
:103F200040E00E944D1E8111E8CFB9CFB701A60134
:103F30004F77552766277727440F551F440F551F86
:103F4000FA01EF54FD4F80819181A281B381BF704E
:103F500088839983AA83BB8381E0DF91CF911F91EE
:103F60000F91FF90EF90DF90CF90BF90AF909F9018
:103F70008F9008954F925F926F927F92AF92BF920F
:103F8000CF92DF92EF92FF920F931F93CF93DF9325
:103F900000D000D0CDB7DEB78C0149835A836B8344
:103FA0007C835901C12CD12C7601412C82E0582E02
:103FB000612C712C49815A816B817C819E012F5F1C
:103FC0003F4FC8010E94361F882351F1D301C2011F
:103FD000F801058404C0880F991FAA1FBB1F0A940B
:103FE000D2F7C80ED91EEA1EFB1E49815A816B8189
:103FF0007C818789803129F088EF9FEFAFEFBFE0A8
:1040000004C088EF9FEFA0E0B0E0481759076A07A7
:104010007B0780F2F501C082D182E282F38281E0E7
:104020000F900F900F900F90DF91CF911F910F91F4
:10403000FF90EF90DF90CF90BF90AF907F906F9008
:104040005F904F9008954F925F926F927F92AF92E0
:10405000BF92CF92DF92EF92FF920F931F93CF9375
:10406000DF93CDB7DEB72B970FB6F894DEBF0FBE48
:10407000CDBF7C01CE0101966C01FC0190E28BE08A
:104080008C0D91938E13FDCFDA0130E047E09D91C6
:10409000992339F19E3219F0E4EEF2E00AC04A3079
:1040A00009F472C138E04AE0F2CF3196891709F479
:1040B0006BC184918111F9CF431708F465C18FED6D
:1040C000890F8E3508F060C181E0830FF601E30FA0
:1040D000F11D3FE9390F3A3108F490529083382F9F
:1040E000D6CF8981803209F44FC1B22E8B01DB011A
:1040F0005B968D919C915C97F701948F838F1696B8
:104100001D921D921D921C921997FB011286138617
:1041100014861586712CF80182859385A485B58552
:10412000438954896589768984179507A607B70757
:1041300008F061C025E0B695A795979587952A95D3
:10414000D1F7F82FFF706F2ED80115968C91823021
:1041500008F41AC1C8010E94D71897FD15C1F801CB
:1041600082859385A485B5854F96A11DB11D828753
:104170009387A487B587F0E26F9EC0011124BC012C
:104180006F547D4F6115710509F4FEC0DB012C9160
:10419000222319F0253EC1F427C071100EC0F7018B
:1041A000628A409106015091070160910801709167
:1041B000090146875787608B718BFC01EF54FD4FD7
:1041C0008081811113C015C04BE050E0C6010E94F0
:1041D0000232892B09F09FCF8B2D8073803309F435
:1041E000D3C04B2D662DCCC07720C9F277247394B1
:1041F00092CF772473948B2D8271823109F0C4C0E1
:104200007720D1F0D7011E966D917D918D919C9173
:10421000519741E00E944D1E882309F4B5C0F70173
:104220006289F0E26F9FB00111246F547D4F6115D8
:10423000710509F079C0A8C0D80115968C9182301B
:1042400009F4A2C0C8010E94EC14882309F49CC0A0
:10425000D8015B96ED91FC915C9716964D905D9020
:104260006D907C901997B2E04B1A51086108710863
:10427000058404C0440C551C661C771C0A94D2F7B4
:1042800086859785A089B189480E591E6A1E7B1EB6
:10429000A480E1E04E1A510861087108AA2009F1D2
:1042A0000E94101E882309F46FC0E1EBF2E0119226
:1042B00024E0E13BF207D9F7D301C2018A0D911D39
:1042C000A11DB11D8093060190930701A0930801E1
:1042D000B09309018091B00281608093B002AA94EA
:1042E000DDCFD8015B96ED91FC915C9780E092E088
:1042F000A0E0B0E0058404C0880F991FAA1FBB1F6F
:104300000A94D2F7F8014389548965897689840F24
:10431000951FA61FB71F838B948BA58BB68BD701D8
:1043200052961C9261EB72E080E2FB0111928A9539
:10433000E9F78BE0F601DB0101900D928A95E1F738
:1043400081E298E2DB0151969C938E93509720E096
:1043500038E01F963C932E931E9753969C938E9312
:10436000529759969C938E93589757963C932E93B9
:1043700056970E94101E882339F04B2DF701628951
:10438000C7010E94D81301C080E02B960FB6F894A5
:10439000DEBF0FBECDBFDF91CF911F910F91FF9078
:1043A000EF90DF90CF90BF90AF907F906F905F9035
:1043B0004F9008958F929F92AF92BF920F931F9349
:1043C000CF93DF93CDB7DEB7A1970FB6F894DEBFDA
:1043D0000FBECDBF19A2423008F44AE08E010F5D36
:1043E0001F4F842E912CA12CB12CA50194010E9469
:1043F000C62EE62FB901CA0101501109EA3014F4A2
:10440000E05D01C0E95CD801EC93232B242B252B24
:1044100061F7B8018CED95E00E947E1CA1960FB665
:10442000F894DEBF0FBECDBFDF91CF911F910F91EA
:10443000BF90AF909F908F9008958F929F92AF9270
:10444000BF92CF92DF92EF92FF92CF93DF936B01F7
:104450007C019B01AC010E94FB2F882319F06AEAC2
:1044600071E027C046015701E894B7F82FEF3FEFFE
:104470004FE75FE7C501B4010E94FB2F81110DC01A
:104480002FEF3FEF4FE75FE7C501B4010E946B2DAF
:1044900018161CF46EEA71E00CC02FEF3FEF4FE7E7
:1044A0005FE4C701B6010E94F62F181684F462EB90
:1044B00071E08CED95E0DF91CF91FF90EF90DF9070
:1044C000CF90BF90AF909F908F900C947E1C2FEF59
:1044D0003FEF4FE75FECC701B6010E946B2D87FDF0
:1044E000E6CF20E030E0A901C701B6010E946B2DA4
:1044F00087FF11C0E091DC05F091DD050190F081AE
:10450000E02D6DE28CED95E00995EC01F7FAF09461
:10451000F7F8F09402C0C0E0D0E02DEC3CEC4CE4A5
:104520005DE3C701B6010E94E92E4B015C010E94C8
:10453000C72F6B017C010E94702D9B01AC01C5014E
:10454000B4010E94E82E4B015C014AE0C701B601AC
:104550000E94DA21C80FD91FE091DC05F091DD053A
:104560000190F081E02D6EE28CED95E00995C80F89
:10457000D91F20E030E040E251E4C501B4010E94BF
:10458000D12D0E94C72F80E090E04AE00E94DA21FE
:104590008C0F9D1FDF91CF91FF90EF90DF90CF9018
:1045A000BF90AF909F908F9008950F931F93CF93DC
:1045B000DF93CCEDD5E00E811F81EDA9FEA982E04D
:1045C0000995EDA9FEA981E0099520E030E044E1DC
:1045D000B80180EE95E00E94F60F23E136E047E156
:1045E000B80180EE95E00E94F60FEDA9FEA980E0EB
:1045F000DF91CF911F910F9109942091E4053091A3
:10460000E5052817390709F444C09093E505809320
:10461000E405009709F437C02091F705FC0121114A
:1046200007C03596E491E093F805FC013C960FC075
:10463000213039F43F96E491E093F805FC0170963F
:1046400006C03D96E491E093F805FC013E96849106
:104650008093F9058091F805082E000C990B2091A4
:10466000F905821B910927FD93952091FA052034C5
:1046700041F0829FC001112426E0969587952A95E6
:10468000E1F78093FB0589E59DE09093F605809323
:10469000F5050895BC018CED95E00C947E1CCF923D
:1046A000DF92EF92FF92CF93DF93C82F8DEF96E0CA
:1046B0000E94FD22D2E0D0931706C093180686EB25
:1046C00091E00E944A23D09317068CE08C0F8093D0
:1046D00018068CEB91E00E944A238EE493E00E943E
:1046E000FD22C090C204D090C304E090C404F090B6
:1046F000C50420E030E040E251E4C701B6010E9469
:104700006B2DCE5E87FF02C08EE401C08CE38093E8
:104710001706C0931806C701B601DF91CF91FF902D
:10472000EF90DF90CF900C941D22CF92DF92EF920A
:10473000FF92CF93DF93C82F8DEF96E00E94FD226A
:10474000D2E0D0931706C093180681EC91E00E9446
:104750004A23D09317068CE08C0F809318068CEBBD
:1047600091E00E944A238EE493E00E94FD22C090D3
:10477000C604D090C704E090C804F090C90420E0BB
:1047800030E040E251E4C701B6010E946B2DCE5EDD
:1047900087FF02C08EE40DC020E030E046EC52E41A
:1047A000C701B6010E94F62F181614F48AE201C060
:1047B0008CE380931706C0931806C701B601DF91FA
:1047C000CF91FF90EF90DF90CF900C941D22CF926D
:1047D000DF92EF92FF92CF93DF93C82F8DEF96E099
:1047E0000E94FD22D2E0D0931706C093180685ECF4
:1047F00091E00E944A23D09317068CE08C0F80939F
:1048000018068CEB91E00E944A238EE493E00E940C
:10481000FD22C090D404D090D504E090D604F0904E
:10482000D70420E030E040E251E4C701B6010E9425
:104830006B2DCE5E87FF02C08EE401C08CE38093B7
:104840001706C0931806C701B601DF91CF91FF90FC
:10485000EF90DF90CF900C941D22CF92DF92EF92D9
:10486000FF92CF93DF93C82F8DEF96E00E94FD2239
:10487000D2E0D0931706C093180689EC91E00E940D
:104880004A23D09317068CE08C0F809318068CEB8C
:1048900091E00E944A238EE493E00E94FD22C090A2
:1048A000D804D090D904E090DA04F090DB0420E042
:1048B00030E040E251E4C701B6010E946B2DCE5EAC
:1048C00087FF02C08EE401C08CE380931706C0937B
:1048D0001806C701B601DF91CF91FF90EF90DF90EE
:1048E000CF900C941D220F931F93CF93DF93182F1B
:1048F0008DEF96E00E94FD22CCEDD5E002E00BAFFB
:104900001CAF8EEC91E00E944A230BAF8CE0810F2C
:104910008CAF83ED91E00E944A238EE493E00E94E5
:10492000FD2289E28BAF1E5E1CAF6091DC047091AA
:10493000DD048091DE049091DF04DF91CF911F911F
:104940000F910C941D22CF92DF92EF92FF92CF93A2
:10495000DF93C82F8DEF96E00E94FD22D2E0D09326
:104960001706C093180681EC91E00E944A23D09369
:1049700017068CE08C0F8093180683ED91E00E945F
:104980004A238EE493E00E94FD22C090CA04D09096
:10499000CB04E090CC04F090CD0420E030E040E285
:1049A00051E4C701B6010E946B2DCE5E87FF02C0A5
:1049B0008EE401C08CE380931706C0931806C701EC
:1049C000B601DF91CF91FF90EF90DF90CF900C94E4
:1049D0001D22CF93C82F8DEF96E00E94FD2282E02A
:1049E00080931706C093180689ED91E00E944A2330
:1049F0008EE493E00E94FD226091D204CE5E643684
:104A000060F488E580931706C093180670E080E094
:104A100090E04AE0CF910C94DA2186E4F3CFCF9373
:104A2000C82F8DEF96E00E94FD2282E0809317064A
:104A3000C09318068DED91E00E944A238EE493E026
:104A40000E94FD226091D304CE5E6A3030F48AE683
:104A500080931706C09318060AC088E5809317064E
:104A6000C0931806643618F086E48093170670E049
:104A700080E090E04AE0CF910C94DA21CF93C82FE8
:104A80008DEF96E00E94FD2282E080931706C0938E
:104A9000180683EE91E00E944A238EE493E00E9480
:104AA000FD220E947C0A20E030E040E251E40E94B6
:104AB0006B2DCE5E87FF02C08EE401C08CE3809335
:104AC0001706C09318060E947C0ACF910C941D22F1
:104AD000CF92DF92EF92FF92CF93C82F8DEF96E0A7
:104AE0000E94FD2282E080931706C093180687EE8D
:104AF00091E00E944A238EE493E00E94FD22C09040
:104B0000BE04D090BF04E090C004F090C10420E047
:104B100030E040E251E4C701B6010E946B2DCE5E49
:104B200087FF02C08EE401C08CE380931706C09318
:104B30001806C701B601CF91FF90EF90DF90CF909C
:104B40000C941D221F93CF93DF93182F8DEF96E0C7
:104B50000E94FD22CCEDD5E082E08BAF1CAF8CEE45
:104B600091E00E944A238EE493E00E94FD228CE3B0
:104B70008BAF1E5E1CAF6091CE047091CF0480910C
:104B8000D0049091D104DF91CF911F910C941D22FC
:104B9000CF93DF93CDB7DEB7CC57D1090FB6F894DA
:104BA000DEBF0FBECDBF789484B5826084BD84B56E
:104BB000816084BD85B5826085BD85B5816085BD18
:104BC00080916E00816080936E00109281008091D0
:104BD0008100826080938100809181008160809358
:104BE0008100809180008160809380008091B1007D
:104BF00084608093B1008091B00081608093B000A8
:104C000080917A00846080937A0080917A0082603B
:104C100080937A0080917A00816080937A008091FD
:104C20007A00806880937A001092C1001092BE04CE
:104C30001092BF041092C0041092C1041092C204DA
:104C40001092C3041092C4041092C5041092C604BA
:104C50001092C7041092C8041092C9041092CA049A
:104C60001092CB041092CC041092CD041092CE047A
:104C70001092CF041092D0041092D1041092D2045A
:104C80001092D3041092D4041092D5041092D6043A
:104C90001092D7041092D8041092D9041092DA041A
:104CA0001092DB041092DC041092DD041092DE04FA
:104CB0001092DF048091E2059091E30521E08030BD
:104CC000920751F0909303018093020180E091E0FC
:104CD0009093E3058093E2058AE190E190930101CE
:104CE0008093000180EE95E00E94C61061E088E0AC
:104CF0000E94441D61E087E00E94441D61E086E05F
:104D00000E94441D62E08EE00E94441D62E08FE03C
:104D10000E94441D62E085E00E94441D85E080936E
:104D2000DB051092DA050E94EB1C892B19F083E059
:104D30008093DA050E94BA1D6093D4057093D5055F
:104D40008093D6059093D70585E090E09093D905A0
:104D50008093D80564E670E080E090E00E94801DBA
:104D60006CE271E081E090E00E94B007EFE0FE2E7F
:104D700001E010E0000F111F60E088E00E94141DA8
:104D8000812F0E94810B802F0E94810B61E088E0BF
:104D90000E94141D62E370E080E090E00E94801D9C
:104DA000FA94F110E7CF6FE0F62E1695079560E0C4
:104DB00088E00E94141D812F0E94810B802F0E9489
:104DC000810B61E088E00E94141D62E370E080E0E6
:104DD00090E00E94801DFA94F110E7CF68EC70E03B
:104DE00080E090E00E94801D68EC70E083E090E03D
:104DF0000E94B00780911906811107C081E080935D
:104E0000190680EE95E00E94E8100E94D52242E04B
:104E1000B42E01E120E844E160E080EE95E00E94DC
:104E20007806882341F132E9C32E31E0D32E04E124
:104E3000760117E0F70184916091E2057091E30536
:104E40001093FC050093FD05B092FF058093FE05CD
:104E50002CEF35E04BE380EE95E00E94F60FFFEF7C
:104E6000EF1AFF0A185F173829F720E1C20ED11C8C
:104E70000F5F0532E9F60E94CA0A8111CACF64E8C1
:104E800073E080E090E00E94801D0E94BA1D6B01DB
:104E90007C018091DB050E94EB1C11E0892B09F459
:104EA00010E08091DA05982F977F9093DA05869528
:104EB0008170181779F00E94BA1D6093D405709321
:104EC000D5058093D6059093D7059091DA0582E0B9
:104ED00089272FC00E94BA1D8090D4059090D505D7
:104EE000A090D605B090D705AB01BC01481959096F
:104EF0006A097B098091D8059091D905A0E0B0E0BE
:104F0000481759076A077B07B0F08091DA0581706E
:104F1000811789F00E94BA1D6093D4057093D5055E
:104F20008093D6059093D7059091DA0581E0892783
:104F300088608093DA058091DA0580FD02C083FDE8
:104F40001EC28091F701863010F01092F701809117
:104F5000F3019091F401A091F501B091F601A70140
:104F60009601281B390B4A0B5B0BDA01C901803D06
:104F70009740A105B10508F4C1C1C092F301D092D8
:104F8000F401E092F501F092F601C090DC04D090BB
:104F9000DD04E090DE04F090DF048090D404909073
:104FA000D504A090D604B090D7044090D804509077
:104FB000D9046090DA047090DB042091C20430912F
:104FC000C3044091C4045091C504ED962CAF3DAF8D
:104FD0004EAF5FAFED9760E070E0CE014E960E945D
:104FE0004C08BE01625E7F4FCE0101960E94401CBC
:104FF00042E050E06BE971E0CE0101960E949D1BFA
:10500000882309F4C2C1ED964CAD5DAD6EAD7FADA8
:10501000ED97CE0101960E944A0B6CE20E942E0C85
:10502000B301A2010E944A0B6CE20E942E0CB50152
:10503000A4010E944A0B6CE20E942E0CB701A6014B
:105040000E944A0BBC01CE018D589F4F0E94401C0C
:10505000CE0101960E94F01BCE014E960E94F01BDD
:105060001C821B8286E491E09A8389831E82809150
:10507000A2058031C1F482E08E83188E198E1A8EBB
:105080001B8E8091A3059091A405A0E0B0E025E0DF
:10509000880F991FAA1FBB1F2A95D1F78C8B9D8B58
:1050A000AE8BBF8B19C0803251F583E08E83409167
:1050B000A5055091A6056091A7057091A805488F98
:1050C000598F6A8F7B8F9E012C5E3F4F8BE895E056
:1050D0000E94BA1F882399F08BE895E09D8F8C8FF2
:1050E00081E08D831F82188619861A861B861C868E
:1050F0001D861E861F86188A198A1A8A1B8A8B812A
:105100009C819EAF8DAF06E411E01CAF0BAF8D818B
:105110008FAF8E8121968FAF21974F8158856985FA
:105120007A8525964CAF5DAF6EAF7FAF25974B85E7
:105130005C856D857E8529964CAF5DAF6EAF7FAF88
:1051400029974F85588969897A892D964CAF5DAF2B
:105150006EAF7FAF2D979B892E969FAF2E974C8970
:105160005D896E897F8962964CAF5DAF6EAF7FAF10
:105170006297488D598D6A8D7B8D66964CAF5DAF79
:105180006EAF7FAF66972C8D3D8D68963FAF2EAF8B
:10519000689719A218A21F8F0E8F1BA281111CC025
:1051A0006C961FAE1EAE6C9788EE93E0A0E0B0E068
:1051B000A0968CAF9DAFAEAFBFAFA09782E291E05B
:1051C0006A969FAF8EAF6A97E3961FAE1EAEE397C7
:1051D000A5961FAEA5975AC027E14EE951E0BE0142
:1051E000655C7F4FCE014E960E9423208823C1F23A
:1051F000CE01CB960E94E01449A95AA96BA97CA9BB
:10520000CE014E960E94421388A199A19C838B8364
:105210001A8309838AA18D838BA18E838CA19DA182
:10522000AEA1BFA18F839887A987BA8788A599A5C2
:10523000AAA5BBA58B879C87AD87BE878CA59DA59E
:10524000AEA5BFA58F87988BA98BBA8B88A98B8BAE
:1052500089A99AA9ABA9BCA98C8B9D8BAE8BBF8B5E
:105260008DA99EA9AFA9B8AD888F998FAA8FBB8F42
:1052700089AD9AAD9D8F8C8F4EE951E0BE016F5F75
:105280007F4FCE01885A9F4F0E94A218E396EEAD41
:10529000FFADE397309751F18581882339F1E99685
:1052A0004EAD5FADE997E5966EAD7FADE597CE016A
:1052B000885A9F4F0E94861867EA71E0CE01885A8B
:1052C0009F4F0E947E1CE3968EAD9FADE3970097A3
:1052D00081F00E94E014E3968EAD9FADE3970E94AB
:1052E0009B30E3961FAE1EAEE39703C081E0809330
:1052F000F201CE018D589F4F0E94F01B809119063C
:10530000811107C081E08093190680EE95E00E942C
:10531000E8100E94D5220E94040B8091F701823090
:1053200099F048F4882371F0813011F582E00E94F1
:10533000290883E01BC0843089F058F08530C1F41F
:1053400081E011C084E00FC086E00E94290887E058
:105350000DC088E00E94290889E008C08AE00E9408
:1053600029088BE003C00E94290880E00E940608FB
:105370000E94CA0A8111CFCF0E940D1B86CD809159
:10538000F7018F5F8093F701DCCDCE0101960E947B
:10539000CB1B39CE1092E3041092E20488EE93E026
:1053A000A0E0B0E08093E4049093E504A093E604C9
:1053B000B093E70424E331E03093E1042093E00468
:1053C00025EC30E03093ED042093EC0424EC30E045
:1053D0003093EF042093EE0420EC30E03093F1049E
:1053E0002093F00421EC30E03093F3042093F20496
:1053F00022EC30E03093F5042093F40426EC30E006
:105400003093F7042093F6041092F9041092FA04F2
:105410001092FB041092FC0420E520937D0510926D
:105420007E051092840510928505109288051092D1
:105430008A0542E050E060E070E040938B055093B5
:105440008C0560938D0570938E051092A2051092C5
:10545000AC051092AB0526E431E03093AA05209309
:10546000A9051092AE051092CB051092CA05809343
:10547000CC059093CD05A093CE05B093CF0582E5E2
:1054800091E09093C9058093C8051092DF051092B2
:10549000DE0586E791E09093DD058093DC051092B0
:1054A000170610921806109219061092E505109230
:1054B000E4051092E7051092E6051092E90581E0F7
:1054C0008093E80582E28093EA051092EF0510923E
:1054D000EE05E3E0F6E09FEF8EE08E0F91938E13E2
:1054E000FDCF81E08093000629E53DE03093F6058D
:1054F0002093F5058093F7051092F8051092F905B1
:1055000080E48093FA051092FB0589E09DE090937A
:1055100012068093110682E191E09093E305809357
:10552000E20510920E0680EE95E00E94E8108EE8EB
:1055300091E09093DD058093DC051092D4051092E4
:10554000D5051092D6051092D7058AE090E0909389
:10555000D9058093D8051092DA051092DB050895DD
:10556000EF920F931F93CF93DF93E80147FD02C0A3
:1055700034E001C034E1E42F440FFF0BF7FF03C018
:10558000F195E195F109E32E022F2E2FAE010E9435
:10559000F52ACE01DF91CF911F910F91EF900895E1
:1055A0004532510520F4423010F00C94DB2AFB0107
:1055B0001082CB010895BB27FB015527AA27880F2E
:1055C000991FAA1FA41710F0A41B83955051B9F777
:1055D000A05DAA3308F0A95DA193009779F7B111F6
:1055E000B1931192CB010C945B2D4F925F926F920D
:1055F0007F929F92AF92BF92CF92DF92EF92FF92F3
:105600000F931F93CF93DF93CDB7DEB729970FB6D4
:10561000F894DEBF0FBECDBF6A01122FB02E2BE370
:10562000201720F0FF24F394F00E02C0BCE3FB2E01
:105630000F2D27E0AE014F5F5F4F0E94832CAC011E
:105640008981982F9970913031F0E1FC06C0E0FE1D
:1056500006C090E205C09DE203C09BE201C090E05D
:10566000EE2DE07183FF3CC0911102C083E001C0C8
:1056700084E0811718F4212F281B01C020E0E111DC
:105680000BC0F601822F30E2882319F0319381504C
:10569000FBCFC20ED11C20E0992329F0D6019C93A8
:1056A000F60131966F01C6010396E2FE0AC03EE4A0
:1056B000D6013C9341E411964C93119712963C937A
:1056C00006C03EE6F601308341E641833283FC01A9
:1056D000322F40E2332309F442C041933150FACFD4
:1056E00082FF44C0911102C083E001C084E08117B1
:1056F00018F4212F281B01C020E0E1110BC0F60196
:10570000822F30E2882319F031938150FBCFC20EF3
:10571000D11C20E0992329F0D6019C93F601319603
:105720006F01C6010396E2FE0BC039E4D6013C933B
:105730003EE411963C93119736E412963C9307C0D1
:1057400039E6F60130833EE6318336E63283FC01EA
:10575000322F40E2332319F041933150FBCFFC014B
:10576000E20FF11D10828EEF9FEFB7C0F1E09111B3
:1057700001C0F0E06F2F70E01416150624F49A01B2
:105780002F5F3F4F02C021E030E0260F371FBB20C4
:1057900029F06B2D70E06F5F7F4F02C060E070E01A
:1057A000260F371F612F70E0261737071CF4121BD6
:1057B000212F01C020E03E2D387159F4D601322F3F
:1057C00060E2332319F06D933150FBCFC20ED11C30
:1057D00020E0FF2331F0D6019C93B6016F5F7F4F2D
:1057E0006B01E1110BC0F601922F30E3992319F000
:1057F00031939150FBCFC20ED11C20E09F2D940F0E
:105800003A81782F7071A72E84FF03C0313309F4D9
:105810009150191624F4993018F098E001C091E0E5
:10582000E42F852F57FF02C0E0E080E06E2F782F35
:10583000E0E0F0E0AEE29A2E3A01691A71082A011E
:10584000461A570A0B2D10E01195019511096F3F6B
:105850008FEF780729F4D6019C92C60101966C015E
:105860004617570784F0661677066CF47F01E40C40
:10587000F51CA1E0B0E0AC0FBD1FEA0EFB1ED70186
:105880001196BC9002C090E3B92E61507109319617
:10589000C60101967C016017710724F0D601BC9205
:1058A0006C01D5CF6417750741F4363320F43533D6
:1058B00021F4A11002C081E3B82EF601B082F701F5
:1058C000822F90E2882319F091938150FBCFF7014A
:1058D000E20FF11D108280E090E029960FB6F89457
:1058E000DEBF0FBECDBFDF91CF911F910F91FF9013
:1058F000EF90DF90CF90BF90AF909F907F906F9090
:105900005F904F900895283008F027E03327DA01A0
:10591000990F311D87FD916000966105710539F47D
:1059200032602E5F3D9330E32A95E1F708959F3F63
:1059300030F080387105610509F03C5F3C5F3D93B4
:10594000913008F08068911DDF93CF931F930F93E0
:10595000FF92EF92192F987F9695E92F969596953D
:10596000E90FFF27EE50FF4F99273327EE24FF243E
:10597000A701E70105900894079428F4360FE71E65
:10598000F81E491F511D660F771F881F991F069427
:10599000A1F70590079428F4E70EF81E491F561F3B
:1059A000C11D770F881F991F661F0694A1F70590E8
:1059B000079428F4F80E491F561FC71FD11D880FE2
:1059C000991F661F771F0694A1F70590079420F48E
:1059D000490F561FC71FD81F990F661F771F881FB3
:1059E0000694A9F784911095177041F0D695C79544
:1059F00057954795F794E7941A95C1F7E8E9F0E0D1
:105A000068941590159135916591959105907FE277
:105A10007395E118F10A430B560BC90BD009C0F777
:105A2000E10CF11E431F561FC91FD01D7EF47033B9
:105A300011F48A95E6CFE894015030F0080F0AF48B
:105A40000027021708F4202F2395022F7A3328F01D
:105A500079E37D932A95E9F710C07D932A9589F61D
:105A6000069497956795379517951794E118F10A5D
:105A7000430B560BC90BD00998F023957E91739573
:105A80007A3308F070E37C932013B8F77E9170614D
:105A90007D9330F0839571E37D9370E32A95E1F770
:105AA0001124EF90FF900F911F91CF91DF919927D3
:105AB00087FD90950895DC01FC01672F7191772394
:105AC000E1F7329704C07C916D9370836291AE17B9
:105AD000BF07C8F308950E94AD2D08F481E0089532
